:020000040800F2
:10000000E8170020315A0008515A0008535A0008D6
:1000100000000000000000000000000000000000E0
:10002000000000000000000000000000555A000819
:100030000000000000000000575A0008595A00084C
:100040005B1100085B12000897120008CF1200082D
:10005000931A0008BB1A0008CF1B0008F71B000802
:1000600077270008814B00082F2D00081B2E000861
:100070008B4B0008532F0008572F0008772F0008DC
:1000800053370008F7380008CF450008BF52000872
:10009000E3590008EF5900082D5A0008755A000866
:1000A000775A0008795A00087B5A00083F2D00084B
:1000B0007D5A00087F5A0008815A0008835A0008B8
:1000C00030B40369002905D09C7824020C80DD78C7
:1000D0002C430C80002A05D01979090211805C7923
:1000E0002143118081681A780A705A784A70022177
:1000F000818130BC704738B504000800216905D003
:100100008B781B020380CD782B430380002A05D017
:100110000879000210804B79184310800622A068ED
:1001200001F036F80620A08131BDBCB504000D00F9
:100130006A4600A9891CFFF7C3FF6846408830283B
:1001400006DB694609884018432801DA002900D1F6
:10015000C5E0A089411CA181694609884900A268BF
:100160001154002715E0002001E068684088A1894B
:100170004A1CA2810204120EA3685A54A1894A1C87
:10018000A281A26850547F1C68464088401C694682
:10019000488069460988B8B288423AD268464088A1
:1001A000302812D0312818D0322818D0342818D04E
:1001B000352819D036281AD037281AD0382820D018
:1001C000392824D03F28D0D0CDE72078216909787C
:1001D0000029CCD18D496161C9E76078C7E7A07873
:1001E000C5E768680078C2E728688078BFE7E078EC
:1001F000BDE76868806A864900F0D7FF01F02EF8F5
:10020000B5E76868C06A01F029F86430AFE7207983
:10021000ADE7B3BDBCB504000D006A4600A9891C5A
:10022000FFF74EFF684640886946098840188328D2
:100230000DDA68464088C107C90F68460088C207C2
:10024000D20F0A4303D168460088002800D146E057
:10025000A089411CA181694609884900A2681154FE
:10026000002722E0002003E0A868C06801F014F82D
:10027000A1894A1CA281020EA3685A54A1894A1C72
:10028000A281020CA3685A54A1894A1CA281020AC5
:10029000A3685A54A1894A1CA281A2685054BF1C69
:1002A00068464088801C6946488069460988B8B21B
:1002B000884213D268464088002806D0022807D01A
:1002C000042808D08028CFD0CCE7A8680088CDE7E4
:1002D00028694068CCE728698068C9E7B3BDA06891
:1002E000417880220A4342700220A168887003206E
:1002F000A081B3BD38B504000D0000226946FFF7A8
:10030000FAFE6846018808005038042808D34A29B4
:1003100006D0A068417880220A43427002206FE034
:10032000206902791202407902430CD0FF200002BA
:10033000824208D0A068417880220A43427003209C
:10034000A26890705FE028004A2908D050290BD09D
:10035000512928D0522936D0532940D031BDFF2011
:10036000000282423FD040E0E1790F2942D18C4C1B
:10037000FF2109028A4205D18168C968A1602178FC
:10038000102206E0002A06D18168C96861602178E0
:1003900001220A4322702178112935D100F0EFFDA6
:1003A0000020207031BDE1790F2923D1FF210902FE
:1003B0008A4229D142687A49D3694B60126A8A60BD
:1003C00000F0DDFD31BDFF200002824202D1754800
:1003D000606131BD002A17D10020A07131BDFF201E
:1003E0000002824201D10F2002E0002A0CD100203D
:1003F000E07131BDA068417880220A434270042038
:10040000A16888700320A08131BD00004B11000855
:100410000000C842F0B583B004000D002069867961
:1004200000AA921C69462000FFF765FE6846008816
:10043000302809DB694649884018432804DA480017
:10044000864201D1002906D1A068417880220A4362
:100450004270022008E0E0790F280AD0A0684178B5
:1004600080220A4342700420A16888700320A08182
:1004700093E0019502960025002619E000280ED091
:100480000199496848800222F91D092005E00228E7
:1004900005DA20710122211D082000F019FF0298C1
:1004A0002D18ADB2761C68460088401C694608804D
:1004B00069464988B0B288426FD220694719F879F5
:1004C0000002397A084369460988302912D0312957
:1004D00019D0322922D0342927D035292FD03629D6
:1004E0003FD0372942D038294ED03929CFD03F29A3
:1004F000C4D0D4E70028D2D0F828D0DA2070012266
:1005000021000120C9E70628C9DA60700122611CB8
:10051000022000F0DDFEB9486061C0E70228BEDCC1
:10052000A0700122A11C0320F3E70228B7DA019989
:10053000496808700122019841680620ADE70A2841
:10054000ADDA019909688870012201980068811C60
:10055000042000F0BDFE01980168887800F076FF65
:100560009DE7E0700122E11C052096E7002896D067
:1005700000F092FEA24901F037FA019949688862B9
:100580000222F91D2F2088E700F086FE01994968B4
:10059000C8620222F91D31207FE703B0F0BD0000E0
:1005A000D81300203111000838B504000D00E0799F
:1005B0000F2809D0A068417880220A4342700420A5
:1005C000A1688870032028E0002269462000FFF718
:1005D00092FD684600880A280DDBB0210140B02951
:1005E00009D0A068417880220A4342700220A168A5
:1005F0008870032011E020690179090240790143E4
:100600000DD0FF200002814209D0A06841788022ED
:100610000A4342700320A2689070A08131BD280077
:100620006A461288012A16D0022A33D0032A4ED0F5
:10063000042A6BD0052A00D17FE0072A00D196E07A
:10064000082A00D1ACE0092A00D1BFE0B22A21D0AB
:10065000B32A3CD031BD42682423D25C0F2A00D09B
:10066000CBE0FF221202914208D166490A7810239A
:1006700013430B7080680089488131BD002900D088
:10068000BBE060490A78022313430B70806800893D
:10069000088131BDFF221202914201D10F2101E0F8
:1006A000002902D142682423D15441682422895C64
:1006B000002900D0A1E0534C217821220A40212AB0
:1006C00000D09AE000F0BAFC0020207031BD4268F2
:1006D0002423D25C0F2A00D08FE0FF221202914225
:1006E00008D148490A78202313430B708068008999
:1006F000888131BD002900D07FE042490A7801237A
:1007000013430B7080680089C88031BD3D4CFF22C7
:100710001202914202D10F20207131BD002901D176
:10072000217102E02179002967D1E178112964D192
:1007300000F0BEFC0020E07031BD324A13790F2B6F
:100740005BD1FF231B02994207D1D17810230B43C1
:10075000D37000690088108231BD00294DD1D17855
:1007600001230B43D37000690088D08131BD254C33
:10077000FF221202914204D1002060700F20A0706D
:1007800031BD002901D1A17002E0A178002934D146
:100790006178332931D100F028FC0020607031BD30
:1007A000184A93780F2B28D1FF231B02994205D1B9
:1007B00080680088D082507810211CE000291CD16C
:1007C0008068008890825078022114E00D4A937866
:1007D0000F2B12D1FF231B02994205D1806800889C
:1007E00010835078202106E0002906D18068008817
:1007F0005082507801210143517031BD1911000818
:100800000000C842981300207CB504000D006A4621
:1008100000A9891CFFF754FC68464088802810DB3B
:10082000694609884018A5280BDAC907C90F684628
:100830004088C207D20F0A4303D1684600880028C7
:100840000AD1A068417880220A4342700220A16840
:1008500088700320A08173BDA089411CA1816946D5
:1008600009884900A26811543000002621E0E86898
:10087000C06801E0E8688068A1894A1CA281020E74
:10088000A3685A54A1894A1CA281020CA3685A5435
:10089000A1894A1CA281020AA3685A54A1894A1C50
:1008A000A281A3685854B61C69464988891C6A46C7
:1008B00051806A461288B1B2914244D26946498851
:1008C00080291AD082291DD084291ED086291FD0C4
:1008D000882920D08A2921D08C2922D08E2923D082
:1008E000902924D0922925D09C2926D09E2927D032
:1008F000A029BFD0A229BAD0BEE76868806900F0FD
:10090000CBFCB9E768684069F9E76868408AF6E7B0
:100910006868008AF3E76868C089F0E768688089DA
:10092000EDE768684089EAE768680089E7E7686892
:10093000C088E4E768688088E1E7E86800689BE7CA
:10094000E868406898E773BDF0B583B007000C0015
:1009500001AA00A9891CFFF7CEFBF8790F2806D061
:10096000B868417880220A43427004201EE038694A
:10097000807969464A88802A12DB89885218A52A1C
:100980000EDACA07D20F6B465B88DD07ED0F154301
:1009900006D14900884203D16946898800290AD1D5
:1009A000B868417880220A4342700220B968887092
:1009B0000320B88110E10026029039E0874901F058
:1009C00069F82CD2002101F079F828D800F046FC13
:1009D00061688880684661688988090A0170616871
:1009E00089884170022269461B2016E07B4901F08C
:1009F00051F814D2002101F061F810D800F02EFC5B
:100A00006168C88068466168C988090A01706168C0
:100A1000C9884170022269461D2000F059FC0298E5
:100A20002D18ADB2B61C68464088801C69464880C7
:100A300069468988B0B2884200D3CDE03869C01DCC
:100A4000401901F04FF869464988802914D082295D
:100A500020D084292AD086293FD0882955D08A29B8
:100A60006CD08C2900D183E08E2900D19AE09029A6
:100A7000BCD09229A2D0D2E701F0AAF861688861BF
:100A80002168886004223869C01D41190F2000F0D8
:100A90001FFCC4E701F09CF8616848612168C860E8
:100AA00004223869C01D41190B20F0E74C4900F0C1
:100AB000F1FFB4D2002101F001F8B0D800F0CEFB74
:100AC000616848826068408A000A69460870606808
:100AD000408A4870022229209FE7414900F0DAFF4E
:100AE0009DD2002100F0EAFF99D800F0B7FB6168C1
:100AF000088268466168098A090A01706168098A82
:100B0000417002226946272087E7354900F0C2FF7D
:100B100085D2002100F0D2FF00D980E700F09EFBD3
:100B20006168C88168466168C989090A017061689D
:100B3000C98941700222694625206EE7284900F0E4
:100B4000A9FF00D36BE7002100F0B8FF00D966E7EA
:100B500000F084FB61688881684661688989090AB8
:100B6000017061688989417002226946232054E737
:100B70001A4900F08FFF00D351E7002100F09EFFDB
:100B800000D94CE700F06AFB6168488168466168FB
:100B90004989090A017061684989417002226946E0
:100BA00021203AE70D4900F075FF00D337E7002117
:100BB00000F084FF00D932E700F050FB6168088143
:100BC000684661680989090A01706168098941708C
:100BD000022269461F2020E703B0F0BD01FF7F47D6
:100BE00001F07F45F8B5060000AA921C6946FFF7A0
:100BF00082FA68460088E02806DB69464988401882
:100C0000E72801DA00290AD1B068417880220A4336
:100C100042700220B16888700320B081F1BD0624C3
:100C200000259C27FF000DE0380001F030F803E0BC
:100C3000A418E4B2302AF7DB6D1C68460088401C1B
:100C400069460880E8B269464988884231D23069ED
:100C500001190A78521CD2B268460088E02809D0EF
:100C6000EAD3E22814D00CD3E4281BD017D3E5280C
:100C7000DED0E1E7A418E4B2302ADDDA8020C0003B
:100C8000D3E7A418E4B2302AD6DA8620C000CCE735
:100C9000A418E4B2302ACFDA8C20C000C5E7A4182B
:100CA000E4B2C9E7A418E4B2302AC5DA9620C0003D
:100CB000BBE7F1BDF8B5040000AA921C6946FFF736
:100CC000FFF968460088E02806DB69464988401835
:100CD000E72801DA00290AD1A068417880220A4376
:100CE00042700220A16888700320A081F1BD2069B4
:100CF000001DA168891C02780A7042784A70206938
:100D0000801CA168091D02780A7042784A7006208A
:100D1000A0810027002629E02A00A068A1894118A7
:100D2000C54801F03CF8A0894019A08118E09C203A
:100D3000C00000F0A8FF0500A089411CA181A268A5
:100D400015540B2D01DA002DE6D1A068A1894018B9
:100D5000401E01210170A089411CA181A268175485
:100D6000761C68460088401C69460880F0B26946D7
:100D70004988884200D390E068460088E02809D07E
:100D8000EED3E2282ED019D3E42870D03ED3E52844
:100D9000CDD0E5E78020C00000F075FF0500A089F8
:100DA000411CA181A26815540B2DCEDA002DCCD0A8
:100DB0002A00A068A1894118D048B2E78620C00067
:100DC00000F061FF0500A089411CA181A2681554B3
:100DD0000B2DBADA002DB8D02A00A068A1894118DD
:100DE000C7489EE78C20C00000F04DFF0500A08999
:100DF000411CA181A26815540B2DA6DA002DA4D0A8
:100E00002A00A068A1894118BE488AE7A089411C30
:100E1000A1810721A2681154A089411CA1815321FD
:100E2000A2681154A089411CA1815621A2681154C5
:100E3000A089411CA1813121A2681154A089411CC3
:100E4000A1812E21A2681154A089411CA1813021C9
:100E5000A2681154A089411CA1812E21A2681154BD
:100E6000A089411CA1813521A268115478E7962000
:100E7000C00000F008FF0500A089411CA181A26804
:100E800015540B2D00DB60E7002D00D15DE72A0033
:100E9000A068A18941189C4843E7F1BD10B5040042
:100EA000216988780002CA781043012804D10879A2
:100EB00000024A7910430CD00878A16808702069B4
:100EC000407880210143A06841700320A26890709F
:100ED0000CE00522A06800F05BF90120A1684871D0
:100EE0000020A1688871072088496161A08110BD38
:100EF000F8B504000D002078A16808700426A168E8
:100F00004E700827A1688F700320A081A868008810
:100F100000F0C2F9A681010EA268D170A1894A1C15
:100F2000A281020CA3685A54A1894A1CA281020A18
:100F3000A3685A54A1894A1CA281A2685054072070
:100F4000A08128694068A781010EA268D171A1899A
:100F50004A1CA281020CA3685A54A1894A1CA2818E
:100F6000020AA3685A54A1894A1CA281A26850545B
:100F70000023A289A168200000F07DFFF1BD3EB5ED
:100F8000634CA16862688A422DD205006846130E40
:100F90000370130C4370130A8370C2700B0E03713D
:100FA0000B0C43710B0A8371C171686842616868F8
:100FB00081612868C26028688160082269460B2028
:100FC00000F086F96868006A0021C94388420AD1A6
:100FD00008226946132000F07BF960686968C861DF
:100FE000A0686968086203B030BD7CB5494CA18A2D
:100FF000638A8B421FD2E28A91421CD2248BA24286
:1010000019D26D461E0A2E706B700E0AAE70E97012
:10101000160A2E716A71260AAE71EC714568AB80B2
:101020004368D98041680A81406844810822694642
:101030001B2000F04DF973BDE10400003EB5354CB6
:10104000A1892278212A29D1E2888A4224D2002249
:10105000628122810500E2886846130A03704270AB
:101060002289130A8370C2706289130A0371427164
:101070000A0A8271C17108226946232000F028F90A
:10108000E0886968888120896968C88160896968A1
:101090000882A0896968488203B030BD62898A42AB
:1010A000FAD223899342F7D2E2889A42D2D3F3E765
:1010B00038B5184C218AE2898A421DD280235B010F
:1010C000994219DA9A4217DA05006846130A037042
:1010D00042700A0A8270C170042269462B2000F017
:1010E000F7F8E089E9680882208AE9684882E868B8
:1010F000418A028A891A818231BD00000104000000
:101100003104000061040000B1040000391100083E
:10111000D81300209813002010B5040001F004F843
:101120000028FBD0A178607800F06EFF002010BD91
:101130000F2181710020704780B500F0F5FF002875
:10114000FBD001F05AF8002002BD80B5002382894F
:10115000816800F090FE002002BDFEE770B4103AF6
:1011600003D378C9103A78C0FBD2530701D318C90A
:1011700018C001D508C908C0D20704D30B88038062
:10118000891C801C002A01D50B78037070BC704745
:101190008B0701D18307E1D0124205D00B78491C9F
:1011A0000370401C521EF9D1704730B405004D4009
:1011B0000122D20715404B180418240E2ED01B0E06
:1011C00032D0FF2C34D0FF2B3AD0E41800020902B1
:1011D00010431143000A090A9446C2B24A43000A66
:1011E000C3B24B43000A4843110A5B181A43D2B2F8
:1011F000190A091801D44918641E080A7F3C23DB28
:10120000FE2C08DAE4050906114363469941604162
:10121000284330BC7047FF20C005F9E728001B0EAB
:10122000FF2BF6D1D043F4E72800FF2CF1D1F9E7EA
:101230004002F7D1FF2B01D14902F3D1E005E7E7E6
:10124000D8054902E4D0EDE743020020641CDFD159
:101250005B129B1CDCD9D805DAE7FEE70122D20736
:101260000118090E7F3910D449421F310FD40018DC
:1012700005D2C0011043C84000D5D0437047C0011B
:101280001043C84005D440427047002070470042D8
:10129000F3D510007047FEE79D2102000AD002D46A
:1012A000491E9218FCD5C905100A1206524100D3F6
:1012B000012A4841704700009D210200EED55242AC
:1012C000F446FFF7EBFF0122D20710436047FEE729
:1012D000F8B505000F001600002400F0D8FC002827
:1012E00000D001243200390080200001281880B28B
:1012F00000F0CDFC002800D001243200390080200D
:101300004001281880B200F0C2FC002800D001245F
:101310002000F2BDF3B581B0002469460989002997
:101320003BD00600002580210901601869464880ED
:101330006846408800F0A7FC07008021490160183A
:10134000694608806846008800F09DFC3178B94203
:1013500000D00125874202D02A0002251543814290
:1013600002D0280004250543062D02D168460088D6
:1013700008E0032D02D16846408803E0052D04D122
:101380003900A0B200F038FC01E0002D05D1641C4A
:10139000761C684600898442C4DB3B2000F073FC65
:1013A000AA2811D1264800F06EFCAA280CD12548A5
:1013B00000F069FCAA2807D1012D05D0022D03D029
:1013C000042D01D0072D05D1684602891E49002051
:1013D000FFF77EFF03B0F0BD78B58FB0002000F0BE
:1013E00052FC012821D00025174E0024092231008B
:1013F000002000F04CFC002800D00124092231001C
:101400008020000100F043FC002800D001240922C4
:1014100031008020400100F03AFC002801D1002C6E
:1014200003D06D1CA8B20428DFDB3C2269460020F3
:1014300000F0B5FC3C216846FFF76CFF10B070BDB2
:101440003B0800003B100000C4580008092820D8C1
:1014500001A2125C974400BF0A3A1014181E2428F7
:101460002E340122012016E0022013E0032011E0B7
:1014700004200F220FE0052018220CE0062000E0D7
:1014800008201E2207E008203C2204E00A206022F7
:1014900001E001200C228A80C8700020087070478B
:1014A00038B504000D0001226946042000F077FCE5
:1014B00068460078A070210068460078FFF7C6FFF4
:1014C0006570042269460F2000F069FC684600F050
:1014D0000BFBA060042269460B2000F060FC68460C
:1014E00000F002FBE06031BD38B50500012269461D
:1014F000062000F054FC6C462078287002226946D1
:10150000092000F04CFC20780002617808436880D4
:10151000042269460B2000F042FC684600F0E4FA21
:101520006861042269460F2000F039FC684600F02B
:10153000DBFAA86104226946132000F030FC6846FB
:1015400000F0D2FAE86104226946172000F027FC77
:10155000684600F0C9FA2862022269461B2000F0A2
:101560001EFC2078000261780843A88002226946A8
:101570001D2000F014FC2078000261780843E88008
:10158000022269461F2000F00AFC207800026178E0
:101590000843288102226946212000F000FC2078BF
:1015A000000261780843688102226946232000F026
:1015B000F6FB2078000261780843A8810222694680
:1015C000252000F0ECFB2078000261780843E881D8
:1015D00002226946272000F0E2FB207800026178B1
:1015E0000843288202226946292000F0D8FB20788F
:1015F0000002617808436882022269462F2000F0C9
:10160000CEFB2078010260780843FFF755FE87493A
:1016100000F0EAF9A86202226946312000F0BFFB1F
:101620002078010260780843FFF746FE804900F009
:1016300013FEE86231BD70B505000C00012600F014
:10164000ADFFC00204D5280000F0B5FF20600026E1
:1016500000F00CFF300070BDF1B584B0160080685A
:10166000884200D908000499C968814200D201006B
:10167000704C04980078002816D100222270231D97
:1016800095005951521C602AFADBC2225200A2185E
:101690008300D150401C8300D150401C0A28F7DB46
:1016A000012004990870BEE0D5208000201822781F
:1016B0009300C150521C2270D2B20A2A01DA0120D2
:1016C000B1E000272770052302220A2100F071FAF9
:1016D000049989886A46118069460D880196012D12
:1016E00001DC30604FE000216A1E0292261D05E0F9
:1016F000230008339B58B350491CC9B28A00029B8F
:101700009942F5DB211D8850032D1DDB0021C220ED
:101710004000221807E08800231D1B5816002836B9
:101720003350491CC9B2A942F5DB68460088032141
:1017300000F095FF83B21A0068460188D620400069
:10174000201800F036FA14E000200021002609E0FD
:1017500002000B00201DB1004058002180185941A3
:10176000761CF6B2AE42F3DB6A461288002300F024
:10177000CDFF0499C9786A46117069460A78012A32
:1017800003DC0199086000204DE00023511E029106
:1017900001290EDBC22149006118039199006518E7
:1017A000C4267600AD59039E75505B1C02998B428E
:1017B000F4DBC221490061189B00C850032A1ADBE0
:1017C000CB2080002518C22040002218049904E094
:1017D000B80013582B507F1CFFB2CC7820008742F2
:1017E000F6DB032100F038FF03000200210028008F
:1017F00000F0DFF914E0002000210023C2256D0075
:10180000661904000D009800305800210019694144
:101810005B1C9342F5DB6A461278002300F076FFEA
:1018200001990860002005B0F0BD00000000C8422A
:101830000000C8C2D4080020F8B584B00500080034
:101840001600297801290ED1FFF726FDA96AFFF7B6
:10185000ACFC0400E96A604800F0FEFC210000F0E6
:10186000FBFC00F0B5F96C69001BFFF715FD0700E4
:10187000A869001BFFF710FD0100380000F0B4F864
:101880000700564900F01AF901D84F1E04E0002164
:1018900000F000F900D20027019651483900FFF707
:1018A00084FCFFF7DBFC84B26888FFF7F5FC3900A5
:1018B000FFF77BFC019948604A483900FFF775FC47
:1018C000FFF7CCFC01990881E889694648816846A0
:1018D0004089002805D0288A0881684600890028A8
:1018E0000BD1AE89688A801BFFF7E6FC3900FFF751
:1018F0005CFCFFF7B3FC801964E0AE88B44201DA07
:10190000A8895FE0EF88BC421BDAA01BFFF7D4FC7C
:101910000090B81BFFF7D0FC0100009800F064F8BD
:10192000060068464089A989401A0199488180B219
:10193000FFF7B2FC3100FFF738FCFFF78FFCA989F5
:101940003FE02E89B4421CDAE01BFFF7B5FC0090A3
:10195000F01BFFF7B1FC0100009800F045F806000D
:101960006846008969464989401A0199488180B2D0
:10197000FFF792FC3100FFF718FCFFF76FFCE989D5
:101980001FE0688903906F8A84421EDAA01BFFF76C
:1019900093FC00900398801BFFF78EFC01000098D9
:1019A00000F022F8060068460089381A019948813B
:1019B00080B2FFF771FC3100FFF7F7FBFFF74EFC39
:1019C000298A40180199488101E0019847810198CE
:1019D000048005B0F0BD00000000C8C20100803FD7
:1019E00000FF7F4700F07F4530B405004D400122E5
:1019F000D20715404B180418240E28D01B0E2FD0E8
:101A0000FF2C34D0FF2B37D0E41A00020902104318
:101A1000114343084808D10D1B1A02D2641EDB187B
:101A20001B18DB18834200D31B1A4941F9D37F34BA
:101A300026DDFE2C08DAE4054808C9071943914160
:101A40006041284330BC7047FF20C005F9E72800FB
:101A50001B0E03D0FF2BF5D14902F3D0D043F1E7A1
:101A6000FF2C01D14002F9D1FF20C005E9E7400277
:101A7000F4D1FF2BF8D1F1E728004902E2D0EDE7DD
:101A80000B0200202442DCD15B129B1CD9D9D80563
:101A9000D7E7FEE70CB4012212060318DA4207D892
:101AA0004B18DA4204D802000A43921802D2884244
:101AB0000CBC7047FCD08142FAE7FEE70CB401226F
:101AC00012060318DA4207D84B18DA4204D802008B
:101AD0000A43921802D281420CBC7047FCD0884263
:101AE0000CBC704701E0000000BF01780902427899
:101AF00089180902827889180902C0780818704785
:101B0000F4B483B00022002B0FD08C1A641E09D0CD
:101B100005006E682F68BE4201D22E606F602D1DD9
:101B2000641EF6D1521C9A42EFD3039A0024002A75
:101B30001CD0CD1A6D1E00950291019300998C4224
:101B400011D20299019BC91A031F89005918009BE1
:101B50001D1B0E1F33680F689F4201D237600B6058
:101B600031006D1EF5D1641C9442E7D304B0F0BC83
:101B70007047F4B502000F0000200021009CE4181B
:101B8000BC4215D2009CA50055191E0007E00200BA
:101B90000B002868002180185941641C2D1DBA1BB8
:101BA0009442F4D3009ABA1A921B002300F0AEFDBF
:101BB000F2BDF8B507000E0015001C00FFF7A0FFEE
:101BC00023002A0031003800FFF7D3FFF2BDFEE703
:101BD00000180ED2010E7F390BD449421F3105D4B3
:101BE000C0010122D2071043C84070470020401EA8
:101BF000704700207047FEE7F8B584B0C0235B0152
:101C000098421FDA0E000500EC0AE40220006B4F38
:101C100080221201390000F0C2F86805400D3E54E0
:101C2000002501956648241802940120039000F0D5
:101C300006FE694601A800F06DFE060000F00EFEEB
:101C4000002E01D001201CE000F0F9FD2500002449
:101C50006010800F0019801080003A58002329007E
:101C6000022000F089FD002804D1241D2D1D5549B6
:101C70008C42EDD9040000F0F1FD601E8041C043AC
:101C8000C00F05B0F0BD4E49401800787047F0B560
:101C900087B0C0246401A04201DB01207DE0130075
:101CA000F822120202404405640D80200001061B48
:101CB000B6B29E4200DB1E0000206F467B800F0004
:101CC000019269465CE03D48029080221201014683
:101CD000019880B200F063F8012E09DB0298001928
:101CE000390032000B780370491C401C521EF9D198
:101CF0000020049001980004C00EC0023049401832
:101D000005900120069000F09AFD03A904A800F0B8
:101D100001FE050000F0A2FD280039D100F08FFD82
:101D2000002401982649451802986110890F091965
:101D300089108900425800232900022000F01CFD70
:101D4000010005D1241D2D1D802109018C42EBD3FA
:101D5000050000F083FD802000010199091889B277
:101D600001910024BF1969464988891B6A46518040
:101D700069464E88864200D9060068460078401CB5
:101D80000870684600784988C90A491C88429AD375
:101D9000E8B2401E8041C043C00F07B0F0BD130041
:101DA00000D1704710B4064B84B2E41824780C704C
:101DB000401C491C521EF7D110BC7047D4000020B3
:101DC00000E80108FF0700001CB504000122694675
:101DD0000120FFF7E4FF6846007820700122694681
:101DE0000220FFF7DCFF6846007860700122694638
:101DF0000320FFF7D4FF68460078A07001226946EF
:101E00000520FFF7CCFF68460078E07001226946A4
:101E10000820FFF7C4FF6846007820710122694658
:101E20000720FFF7BCFF68460078A0710020E07132
:101E3000606172492161962292008918A160A08197
:101E4000A178607800F0E0F813BD70B40200FF23C1
:101E5000FF200C000AD06A4C451C651916784640D4
:101E6000521CA05D5840AB5D491EF7D119020143D9
:101E7000080070BC7047D0B50C001AD0160018D0FE
:101E80001F2E16DA2178002901D1002B11D107006D
:101E9000B87900280DD131002000FFF7D6FFA11935
:101EA0000870000A4870B21C92B22100380000F09D
:101EB00001F8D0BD38B50D001400012211029020A8
:101EC000C00500F04DFE00F02FF90028FBD000F017
:101ED00032F92100280000F0FFFE31BD70B504008A
:101EE0000D00206900F0F5F80100881E6CD420690F
:101EF0004218921E53781E0212781643891E89B228
:101F0000FFF7A3FF86425FD12069027821789142D2
:101F100001D0002A58D129004078032812D0042883
:101F200014D0052816D0102818D025281AD0262815
:101F30001CD027281ED02A2820D02B2822D0412888
:101F400024D027E02000FEF7F0F830E02000FEF774
:101F500061F92CE02000FEF7CDF928E02000FEF723
:101F600059FA24E02000FEF71FFB20E02000FEF7D6
:101F70004BFC1CE02000FEF7E7FC18E02000FEF719
:101F800031FE14E02000FEF795FE10E02000FEF781
:101F900085FF0CE0A0680270206940788021014331
:101FA000A06841700120A16888700320A0810123EE
:101FB000A289A1682000FFF75EFF6169002903D0B4
:101FC000200088470020606170BD70B504000E00DD
:101FD000E078002811D000F001FF0A4D2968401A6E
:101FE000E178FA2292005143884206D33100200062
:101FF000FEF77EFF00F0F2FE286070BD500C00205E
:1020000070560008E413002070B586B0052814D877
:1020100001A2125C974400BF06220C12161C9620E7
:1020200040010CE09620C00109E0962000E0E1208C
:10203000000204E0E120400201E0962080010E0051
:10204000012902D0022902D004E0C02100E0802151
:10205000C90000E0002100F097FD01A8142100F064
:10206000C3FE802080024A490A6802430A60096868
:1020700008400090009880256D0001950120029095
:102080000390032004909024E40501A9200000F0AF
:10209000ABFC00222900200000F062FD002E01D1DF
:1020A000642400E06E2420000A2100F0D8FA050024
:1020B00020000A2100F0D3FA002900D06D1C28006E
:1020C00000F01CFE96218900324800F00CFE06B09C
:1020D00070BDF8B5304CA58830498D4202DA66886B
:1020E0008E4201DB0020F2BD0700AE4206D232462E
:1020F000601971424118083138000EE0721BA81BAC
:1021000020189821890041183800FFF741F8A2886B
:1021100021000831B8196B42C018FFF739F8608800
:10212000F2BD1D48407870471D4800787047002078
:10213000194948707047002019490870704710B459
:102140005821415AC06E00684068081A80B2124A8D
:1021500093881478002C04D04118C91A00231370F6
:1021600000E0C11A518090800120507010BC70476F
:10217000012009490870704780B50022802149007C
:102180009020C00500F0ECFC01200549087001BD5D
:1021900014100240D00E0020C80E0020590200008A
:1021A000D000002010B4C20018231340FF249C402C
:1021B000E2438907090E9940030004D41E489B0896
:1021C0009B00C01806E01D4B0007000F0838800870
:1021D0008000181803681A401143016010BC704752
:1021E00080B5FFF7DFFF01BD010005D40121C00666
:1021F000C00E8140124801607047BFF34F8F1148F5
:1022000011490860BFF34F8F00BFFDE7401E0F4923
:10221000884201D9012070470D4948600D48026885
:102220001202120AC0231B061343036000208860B9
:1022300007220A607047000000E400E01CED00E0A7
:1022400000E100E00400FA050CED00E0FFFFFF00F4
:1022500010E000E020ED00E00122D20703004B4037
:102260002ED4431A01D2C01AC91830B44B1804181E
:10227000240E1B0E22D0FF2C20D0E31A182B1DDCBD
:1022800009021143C40D641E00021043944619252F
:10229000ED1A0A00AA40D940451801D36D08A41CC4
:1022A000E405D209280A2D062A436546AA41604161
:1022B00003181B0EFF2B01D3C00DC00530BC7047A7
:1022C000514006E05140CCE70122D20703004B40C9
:1022D000F8D4431A03D2C01AC9185040514030B440
:1022E0004B18090211430418240E1B0E40D0FF2C7A
:1022F0003AD025009D410BD31ED8C50D4002401A8F
:102300000BD3ED050100400AC90591416841D5E7AD
:10231000C50D40024918401AD0D001214008491C7F
:102320000018FCD58C4204D36D1A000AED05401943
:10233000C4E7E8051040C1E7182DBFDCAC1C0D0058
:10234000E140E5414D40012D4941C40D00021043DB
:10235000451A01D46D199543641EE405280A2D061B
:102360009541604130BC7047FF2BA7D1D843A5E70A
:102370002442A3D10020A1E7F8B586B001A814211A
:1023800000F032FD8020800281490A6802430A6021
:102390000968084000900098802636029025ED05D7
:1023A00001223100280000F0DBFB019601200290A1
:1023B00003900020049001A9280000F015FB00F014
:1023C0002DFD00F030F8012000F0AEFD0A24882732
:1023D00000F06CF8002813D000223100280000F033
:1023E000BFFB68460770012100F07BFD0122310030
:1023F000280000F0B5FB012000F096FD641EE7D137
:10240000012000F091FD00F09CF800F03BF8012065
:1024100000F08AFD00F013F8012000F085FD00F0C7
:1024200025F807B0F0BD38B59025ED0580242402CD
:1024300000222100280000F093FB88200AE038B534
:102440009025ED058024240200222100280000F0C0
:1024500087FB8A20694608700121684600F041FD2B
:1024600001222100280000F07BFB31BD38B590250A
:10247000ED058024240200222100280000F070FBDA
:102480008C20E7E738B59025ED0580242402002252
:102490002100280000F064FB6846D421017000216F
:1024A000417081700121C1700421D7E7FEB500247D
:1024B000384E00252F1290203843694608704D7021
:1024C000307888700022802109029020C00500F039
:1024D00047FB0321684600F004FD0122D103902050
:1024E000C00500F03DFB10203843694608704D7070
:1024F00000278F700022802109029020C00500F083
:102500002FFB032201A9684600F0F8FC0122D10349
:102510009020C00500F024FB641CE0B20B280EDA0A
:10252000307801A989788842C4D10024761C6D1CBA
:10253000EC2080008542BDD3002003B0F0BD012017
:10254000FBE7F8B50025144C80273F026E46C021FA
:10255000294331702068000C70702068000AB07048
:102560002068F070002239009020C00500F0F8FAD1
:102570000421684600F0B5FC012239009020C00516
:1025800000F0EEFA6D1C241D152DE0D3F1BD000006
:1025900014100240C0520008705800083EB5902543
:1025A000ED058024240200222100280000F0D8FA42
:1025B00001A8482123E07CB504009026F60580257B
:1025C0002D0200222900300000F0CAFA01A84021A3
:1025D000214301700021417041800422694600F0CE
:1025E0008DFC01222900300000F0BAFA68464178DB
:1025F0000904827812020A43C078104376BD017044
:102600000021417041800422694600F077FC0122DC
:102610002100280000F0A4FA684641780904827875
:1026200012020A43C078104303B030BDF4460028BC
:1026300004D4494200F013F8404260474042002968
:1026400005D45FD000F00BF8404249426047494250
:1026500000F005F84942604703460B43E6D40022E8
:10266000030A8B420BD203098B4219D243088B42D7
:102670002ED2411A00D20146524110467047FF2225
:1026800009023FD012068B4205D3121209028B4277
:1026900001D31212090203098B4219D300E0090A7F
:1026A000C3098B4201D3CB01C01A524183098B422B
:1026B00001D38B01C01A524143098B4201D34B0114
:1026C000C01A524103098B4201D30B01C01A524177
:1026D000C3088B4201D3CB00C01A524183088B42FE
:1026E00001D38B00C01A524143088B4201D34B00E7
:1026F000C01A5241884200D3401A5241CFD20146FB
:102700001046704708B500F023FC08BD124224D0E3
:10271000994228D970B500251B4202D00C00002137
:1027200009E00024012649186441944200D3A41A08
:102730007641F8D33100012601E0764109D2001834
:1027400064416D41A41A9D41F7D2A4185D41B619A8
:10275000F5D3300022002B0070BD1B42D8D108B544
:1027600000F0F8FB08BD01D19042D3D202000B006B
:10277000002100207047FEE7F2B584B00700140086
:102780001D003A48007E012801D1022055E00126B3
:1027900036490E763648009000F06CF8010049D1B9
:1027A000012F04D0022F01D1022600E004262027A9
:1027B0000499049102A930C101960024012500204A
:1027C0002A49C8614D48406828434C49486002A8DE
:1027D00003C8220100F0C0FB049962008918088038
:1027E00000F0FCFA06004548006828400BD000F0D5
:1027F000F5FA801B00998842F5D903200FE000F01C
:1028000061F801200BE03D480168394000D00760C5
:102810000168C906F3D400684007F0D400203749A6
:102820004A6801239A434A60010003D1641C01995C
:102830008C42C4DB00210D4A117605B0F0BD0020AA
:1028400030498022CB68134007D02F4B0B602F4BB1
:102850000B60C9680A4000D0012070472848016811
:1028600080220A4302600020704700007813002095
:1028700050C30000F8B5060000F0B0FA01241F4D67
:102880000700286820400ED00020C0438642F8D0C0
:10289000002E04D000F0A2FAC01B8642F1D2032021
:1028A000F2BD0020F2BD20202968014000D0286040
:1028B0002868C00602D428684007F2D500F002F864
:1028C0000120F2BD30B4002110220C4803681340EF
:1028D00005D00F49CB6902241C43CC61102104238D
:1028E00002681A4007D00A4AD46901252543D561F8
:1028F0000A0004211143016030BC70470C200240E3
:10290000102002400420024023016745AB89EFCD2F
:1029100078130020F0B583B00D00012101272F4C62
:10292000227E012A01D1022049E00600217630688A
:10293000012810D12A48FFF79DFF00283CD100F064
:1029400040F82748FFF796FF070026480168042251
:102950009143016030E02248FFF78CFF00282BD123
:1029600000950020C04328607068002102911D4D31
:102970000196060001E08802361801988068C002BE
:10298000019949684018864216D20298E061286889
:102990000221014329606E602868402101432960BB
:1029A0000F48FFF767FF0700286802218843286067
:1029B0003800E0D00098066000202076380003B090
:1029C000F0BD00200549C8610648016804220A4399
:1029D0000260016840220A430260704778130020B9
:1029E00050C3000010200240F0B483B00A0000235E
:1029F0005E490091010038E0052403E05C48814213
:102A0000FAD10424B4402C4302980460009804686E
:102A1000019DE84304405568ED0302D52500019C63
:102A20002C43009D2C60009C646804405568AD03F5
:102A300002D52500019C2C43009D6C60009CA4687D
:102A400004405568ED0202D52500019C2C43009DF1
:102A5000AC60009CE46820405468A40202D50400E5
:102A600001982043009CE0605B1C10680400DC407F
:102A700073D001249C4002940440019401980028E2
:102A8000F2D05068022801D012280DD1D808800059
:102A90000818046A9E001C2535400F26AE40B4433A
:102AA0001669AE402643066208685C000326A6400D
:102AB000F54328401679B607B60FA64006430E60C8
:102AC0005068012805D0022803D0112801D012280F
:102AD0000FD188682840D668A64006438E604E68AD
:102AE0000120029FBE4357683F0938409840304359
:102AF0004860CE6835409668A6402E43CE60546844
:102B0000E400B1D501241B4D2D682543194E3560D5
:102B1000356825400295029D174D9E08B600AD19F7
:102B200002952D680C269F003E400F27B740BD43FD
:102B30009027FF05B94201D1002463E70F4FB94246
:102B400000D15FE70E4CA14201D102245AE70D4C9F
:102B5000A14200D052E7032454E703B0F0BC704711
:102B6000002A01D0816170478162704700040140F2
:102B700000100048181002400800014000040048FE
:102B800000080048000C004810B58D4A8D4B1360BA
:102B9000002901D1002309E0C023DB00994203D0C2
:102BA0008023DB00994202D180235B0193600023E4
:102BB000D3600C2454619361D361136253625060FB
:102BC0001161100000F0D8F9002801D000F0C0FD1C
:102BD00010BDF1B586B001A8142100F005F90698E2
:102BE00000687849884275D177488021C9014268D8
:102BF0000A43426042681140009100990121026835
:102C00000A43026002680A400092009A4A0403687C
:102C100013430360036813400093009B036813434E
:102C20000360006802400092009848020190022070
:102C30000290002403940320049005919025ED0553
:102C400001A92800FFF7D0FE8020C000019001A953
:102C50002800FFF7C9FE5D4E5D4814303060746097
:102C6000B4608027F760346174612020B061050290
:102C7000F561300000F06EFD002801D000F068FD25
:102C80000698C66606987062524E51483060102011
:102C90007060B460F76034617461B461F5613000F4
:102CA00000F058FD002801D000F052FD069886661D
:102CB00006987062002200210A20FFF791FA0A208C
:102CC000FFF792FA002201211B20FFF789FA1B204F
:102CD000FFF78AFA07B0F0BD80B50A000100384856
:102CE00000F080F905E080B50A000100344800F0EA
:102CF000C7F9401E8041C043C00F02BD38B5040073
:102D00002F4D280000F034FA28680168324A0A4042
:102D100002602100280000F00FFA280000F013FAEA
:102D2000286801688022D2040A43026031BD80B560
:102D3000284800F08AFD254800F087FD01BD10B548
:102D40001F4C206880210901C2690A4003D001623A
:102D50002000FFF7F4F9206880218902C2690A4047
:102D600003D00162200000F0C5FD20684021C26947
:102D70000A400BD00268114008D0016840229143FC
:102D80000160202060672000FFF7F6F9206801212C
:102D9000C2690A4000D0016220680221C2690A406B
:102DA00000D0016220680421C2690A4000D001629B
:102DB00020680821C2690A4000D0016210BD0000ED
:102DC000281100200038014014100240AC120020ED
:102DD0001C000240F0120020FFFFFFFB014840688A
:102DE000704700BFC00000200022FFE71300103929
:102DF00006D330B41400150010393CC0FCD230BCEE
:102E0000490700D30CC000D504C0890002D302805A
:102E1000801C002900D502707047FEE780B53D4850
:102E20003D49016082214900416000218160E0222A
:102E3000D200C26001610122426152028261082215
:102E4000C2610162416281620722C2620163416321
:102E500000F052FD002801D000F07AFC01BD10B551
:102E600086B001A81421FFF7BFFF2C48810C4268EF
:102E70000A43426042681140009100998021C902D2
:102E800002680A43026002680A400092009A0268DF
:102E90000A43026002680A400092009A02680A43EC
:102EA0000260006801400091009808200190022013
:102EB000029000200390032104910590184C01A971
:102EC0002000FFF791FD1020019001A92000FFF7DD
:102ED0008BFD2020019001A92000FFF785FD06B0A1
:102EE00010BD80B50A000F4B01000A4800F05CFDE0
:102EF000FFE7401E8041C043C00F02BD80B51300F4
:102F0000084A00920A000100024800F037FEF0E78C
:102F100000000000A8110020003001401410024001
:102F200000040048B80B000038B50500FFF756FF55
:102F300004000020C043854202D0044800782D18C8
:102F4000FFF74CFF001BA842FAD331BDC0000020A0
:102F50007047FEE77047FEE7D2B2203A03D308007D
:102F6000D040002170472032D141D04048409140AC
:102F7000D14048407047FEE738B5040014D0250022
:102F800070356868002803D128702000FFF721FE03
:102F900024206860206801680122914301602000BC
:102FA00000F000F9012801D1012032BD606A00283B
:102FB00002D0200000F0A6F920684168084A0A40C3
:102FC0004260206881682A2291438160FFE720687F
:102FD000016801220A430260200000F003FA32BDBA
:102FE000FFB7FFFF70B505002E007036706820280F
:102FF00044D1002935D0100033D0A86880235B016C
:10300000984204D12869002801D1C80729D470202A
:10301000285C012832D001203070E964280050304B
:10302000028042800024F4602121716081690029BE
:1030300019D03C4B8B623C498369D9623B49836917
:10304000196381694C6313002A682832E96C80692E
:1030500000F0B4FB002806D01020F060347020206F
:103060007060012070BD40202968086234702868B3
:10307000816880220A438260002070BD022070BDFA
:10308000F8B5060035005835286A202848D10029AF
:103090000BD0100009D0B06880235B01984206D1A4
:1030A0003069002803D1C80701D50120F2BD287E70
:1030B000012835D001272F7671652A8000246C62A3
:1030C000222028626869002819D0194981621948AC
:1030D0006969C862154869690863686944631300CF
:1030E000726D31682431686900F068FB002806D0F1
:1030F000102068622C762020E8610120F2BD2C7639
:10310000306801683A020A430260306881680F4300
:1031100087603068816840220A4382600020F2BDE7
:103120000220F2BDD53400080335000863350008DD
:103130000D3500085935000800684269120E120664
:10314000114341617047010070314A68202A0DD156
:103150007022825C012A09D001220A7024224A606E
:103160000068426880231B04134315E00220704767
:10317000010070314A68202A0CD17022825C012A39
:1031800008D001220A7024224A60006842685C4B21
:10319000134001E002207047436020204860002077
:1031A0000870704770B505000026002000242968CB
:1031B0000A68864B1340AA681A432B6913436A694D
:1031C0001A43EB6913430B604A68814B1340EA686A
:1031D0001A434A608A687F4B1340AA691A432B6AD4
:1031E00013438B607C4A91420AD17C490968890764
:1031F000890F28D002291BD018D3032914D021E02D
:10320000774A914216D175490968C02292020A4054
:1032100016D0802149028A4208D049008A4207D04C
:10322000C02189028A420DD102210CE004210AE06A
:10323000082108E0A24A914202D0A24A914201D15B
:10324000002100E0102180221202EB6993422BD171
:10325000002906D002290AD004290CD0082910D050
:1032600017E001F07FF9696840004A080CE06968DE
:103270004808954A08E001F049F9696840004A08A1
:1032800002E06968480852008018FFF7E8F980B248
:1032900000E001248D490200103A8A422BD20140FD
:1032A0000007400F084323E0002906D0022909D077
:1032B00004290BD008290ED014E001F053F96968F5
:1032C0004A080AE069684808814A06E001F01EF9E8
:1032D00069684A0801E0696848088018FFF7BFF983
:1032E00080B200E0012401001039784A914202D2F4
:1032F0002968C86000E001242E666E66200070BD5B
:10330000FFFF7FFF2421415CC90706D501684A6899
:103310008D4B1340826A1A434A602421415C89071D
:1033200006D501684A68894B1340C26A1A434A604D
:103330002421415C490706D501684A68844B134043
:10334000026B1A434A602421415C090706D50168D3
:103350004A68804B1340426B1A434A602421415C07
:10336000C90606D501688A68974B1340826B1A43D9
:103370008A602421415C890606D501688A68934BDE
:103380001340C26B1A438A602421415C490611D55F
:1033900001684A688E4B1340026C1A434A60026C03
:1033A00080235B039A4205D14A688A4B1340426CE2
:1033B0001A434A602421415C090606D501684A681F
:1033C000854B1340806C184348607047F369FFEFEA
:1033D000FFCFFFFFFFF4FFFF003801403010024035
:1033E00000440040F8B505002F0070370024FC6051
:1033F000FFF7F4FC060028680068000723D528685A
:10340000C06980021FD4FFF7E9FC801B802189047A
:1034100088422868016844D24907F0D58021090113
:10342000C2690A40EBD00162286801686B4A0A4011
:1034300002602868816801229143816020207860C1
:10344000B860F86038E028680068400723D528682D
:10345000C06940021FD4FFF7C1FC801B8021890492
:103460008842286801681CD24907F0D580210901EB
:10347000C2690A40EBD0016228680168574A0A40D5
:103480000260286881680122914381602020786071
:10349000B860F86010E020207860B8603C700020D0
:1034A000F2BD4E4A0A4002602868816801229143B9
:1034B000816020207860B8603C700320F2BD00007D
:1034C00000480040004C00400024F400F0FF0000E1
:1034D00000127A0080B50100486A896920290DD060
:1034E00000215222815201688A6880239A438A60AF
:1034F0000068016840220A43026001BDFEF73CFEFD
:1035000001BD80B5406A01F05FF801BD80B50100E2
:10351000486A8969202913D000215A228152016802
:103520000A68304B13400B6001688A6801239A4394
:103530008A6001688A6840239A438A6020218167F3
:10354000FEF716FE01BD0000FFFFFDFFFFFFFEFFBF
:10355000FFFFFBFFFF7FFFFF80B5406A01F035F8FA
:1035600001BD38B5406A010060314C698A69036861
:103570009D682D060AD5212C08D1002452254453DC
:103580001C68C025AC431C6020234B6103689C6809
:10359000640611D5222A0FD10022050052352A8156
:1035A0001C680F4D25401D6003689C680125AC43D5
:1035B0009C6020238B610A60CA6910231343CB618E
:1035C00001F004F831BD0000FFEFFFFFFFDFFFFF58
:1035D000FFFFEFFFFFFF9FFFFFFFF7FF5FFEFFFF14
:1035E000DFFEFFFFFFFEFFFF78B5A9B0C0223D4917
:1035F00080208005FDF7B2FD3B480168032291431E
:10360000016001680A430260FFF7E8FB05001DAE98
:1036100000202421705417A8049006A805900DA836
:1036200001901DA8029009A8039000F0D1FF00F0BE
:103630005DF8FDF7D1FE0A210DA8FDF731FF1DA8A9
:10364000FDF752FF17A800F0D3FFFEF795FE01F03B
:103650001AF801F069F801F0D9F811A8FEF7B4FBE7
:1036600009AC01F0E4F8FEF75CFD002805D001A9E3
:1036700011A8FEF733FCFEF75AFDFFF7AFFB401B26
:10368000652821D303990C310120FDF7D4FF0028D0
:1036900017D16A460398C1680DA8FDF7DDFF002821
:1036A0000FD109AA00991DA8FEF7C6F82420305CA6
:1036B0000F2802D00121608901E00121208901F059
:1036C0007EF8FFF78BFB050001F00EF8012804D10E
:1036D00000F0EFFF079001F00AF801A911A8FEF72A
:1036E00074FCBEE7003000080000014070B598B0DF
:1036F0000BA83421FFF778FB68461021FFF774FB15
:1037000004A81C21FFF770FB1A200B9001240E94D3
:10371000109410200F901190129402261496C0025B
:10372000159040011690002517950BA800F02AFC73
:10373000072000900196029503950121684600F04C
:1037400063FE0494069504A801F07EF818B070BDDD
:103750007047FEE710B5040001D1012010BD022022
:103760002121605420680168114A0A4061681143B0
:10377000A2680A43E168114322690A43616911435F
:10378000A2690A43E16911430160206809494018B0
:103790001421FEF764FF800020640748E0630020E6
:1037A000A06301212122A1542021605410BD0000FA
:1037B0000FC0FFFFF8FFFDBF00000240F2B400257C
:1037C00000212024045D012C01D102203BE00124D2
:1037D0002027C45502262127C75D012F2FD121277D
:1037E000C655856305682E68A6432E60056C0126C4
:1037F000AE40C56B6E6005686B60009B4568102D20
:10380000056803D1AA600268D36002E0AB60036878
:10381000DA600268C36A002B136803D00E251D43CB
:10382000156007E00A251D4315600268136804252A
:10383000AB431360006802681443046002E0202177
:10384000455402210800F2BC704770B5C16B09688D
:1038500002681368046C04250426A6400E4010D0AC
:103860002B420ED01168890602D41168A943116059
:10387000016C8D40C16B4D60C16A002939D0884709
:1038800070BD02250226A6400E4017D02B4215D04F
:103890001168890606D411680A2399431160012131
:1038A00021228154016C8D40C16B4D60002120228A
:1038B0008154816A00291CD0884770BD08250826DC
:1038C000A6400E4015D01D4013D011680E23994319
:1038D00011600121026C01239340C26B536081632C
:1038E00021228154002120228154016B002900D023
:1038F000884770BD7047FEE7F8B5040001D101208C
:10390000F2BD0025A56226005C367078002803D140
:1039100035702000FFF7A3FA0220707021680A6852
:1039200040239A430A60E168E022D200914205D91F
:103930000023F0273F01B94203D103E0C3029142C3
:1039400000D0A562276B002F03D1914200D801203F
:1039500020636068A16801432069084361690143ED
:10396000A0698022920010400843E1690143206A67
:103970000843A16A014320680160A069000C04218A
:103980000840616A0143606B0843E16801430B43EF
:10399000206843602068C169764A0A40C261756048
:1039A000012070700020F2BDFEB504000E0000275B
:1039B0004430007E012801D10220D7E0150001200B
:1039C000210044310876FFF709FA00902800210011
:1039D0004431497E012901D00227C0E0002E00D1E8
:1039E000BCE0290000D1B9E0032122004432517625
:1039F00022004432D761A663A587E5872764442265
:103A0000A75222004432578022004432D76022005D
:103A100044329760A16880221202914205D1216848
:103A20000A688023DB0113430B60216840220B6886
:103A3000134002D10B681A430A606168029DE26874
:103A40004D4B9A422DD3002901D0012809D1A06BFA
:103A500000882168C860A06B801CA063E08F401EB6
:103A6000E087009E08E0A16B0988C160A06B801C04
:103A7000A063E08F401EE087E08F002854D02068CC
:103A800081688907EFD4FFF7A9F9801BA84205D305
:103A90000020C0438542EFD0032760E0002DEBD12A
:103AA000FAE7002901D001280CD1A06B2168E28F30
:103AB000022A09D30088C860A06B801CA063E08F35
:103AC000801EE087009E0FE000780873A06B401C0A
:103AD000A063E08F401EF4E70988C160A06B801CE2
:103AE000A063E08F801EE087E08F00281CD0206854
:103AF000816889070BD5A16BE28F022AECD2097885
:103B00000173A06B401CA063E08F401EEBE7FFF742
:103B100065F9801BA84204D30020C0438542BBD175
:103B2000E2E7002DE0D1B7E729003200200000F0E5
:103B3000BFF9002803D0202021004431C861A068CB
:103B4000002806D100902068C1680091806800902C
:103B5000009820004430C069002800D001272000D0
:103B600044300121417600210176380003B0F0BDD8
:103B700000000000FFF7FFFF01070000F3B585B06C
:103B800004001700012004900020694608702000FE
:103B90004430007E012801D1022034E11D002600BE
:103BA000443601203076FFF719F90390717E0295B3
:103BB00001290BD0626882235B009A4204D1A2687B
:103BC000002A01D1042901D002208CE006990029A5
:103BD00003D0002F01D02A0001D1012083E0727EA2
:103BE000042A01D005227276002201922300443378
:103BF000DA6127642200443255804422A552A16331
:103C0000E587A5870199220044329160019922003D
:103C10004432D1607D49E2688A4201D2022D04D348
:103C2000206842687A4B134004E020684268802391
:103C30005B0113434360206840220368134002D1B4
:103C400003681A43026060680C9FE2688A424DD3A1
:103C5000002802D00298012809D1A06B00882168B1
:103C6000C860A06B801CA063E08F401EE087049EAC
:103C7000039DE08F002805D12000443040880028B3
:103C800000D1AAE02068816889070ED5E18F00295C
:103C90000BD0002E09D0A16B0988C160A06B801CDD
:103CA000A063E08F401EE087019E206801218268AA
:103CB0000A400ED0220044325388002B09D0C0683D
:103CC000236C1880206C801C20645088401E50801B
:103CD0000126FFF783F8401BB842CAD30020C04337
:103CE0008742C6D003206946087084E0002802D0CD
:103CF000029801280CD1A06B2168E28F022A0AD316
:103D00000088C860A06B801CA063E08F801EE087E5
:103D1000049E039D41E000780873A06B401CA063E3
:103D2000E08F401EF3E709780173A06B401CA0638D
:103D3000E08F401EE087019E216801208A680240D2
:103D400022D0220044325388002B1DD0236C568889
:103D5000022E10D3C9681980216C891C21645188F6
:103D6000891E5180518802290DD221684A680303B7
:103D700013434B6007E0097B1970216C491C2164D7
:103D80005188491E51800126FFF728F8401BB84290
:103D900020D30020C0438742A4D1E08F002804D163
:103DA000200044304088002817D0206881688907A7
:103DB000C2D5E18F0029BFD0002EBDD0A16BE28F0C
:103DC000022AB0D30988C160A06B801CA063E08F79
:103DD000801EAFE7002FE0D184E739002A002000E1
:103DE00000F066F8002806D00120694608702020FF
:103DF00021004431C8612000443001214176002176
:103E000001766846007807B0F0BD000001070000A9
:103E1000FFEFFFFF7CB51400069A009404000D002C
:103E20001E000692206880682840A84201D1012027
:103E300000E000200099884238D00020C04386422C
:103E4000F0D0FEF7CBFF0699401AB04201D2002E07
:103E5000E8D120684168E022914341606068822196
:103E6000490088420CD1A06880210902884202D012
:103E70004909884204D120680168402291430160C9
:103E800080208001A16A814208D121680A68394BEB
:103E900013400B6021680A681043086020005C3002
:103EA0000121417000210170032076BD002076BD04
:103EB000F8B5C0277F0104000D0016002068806857
:103EC000384046D00020C0438542F7D0FEF786FF39
:103ED000801BA84211D2002DF0D10EE020005C30F2
:103EE00036E0007B0020C04385423BD0FEF776FFE2
:103EF000801BA84201D2002D34D120684168E02205
:103F00009143416060688221490088420CD1A068D9
:103F100080210902884202D04909884204D12068E0
:103F2000016840229143016080208001A16A8142A2
:103F300008D121680A680F4B13400B6021680A689A
:103F40001043086020005C300121417000210170A5
:103F500012E000962B00002280212000FFF75AFF7C
:103F60000028BBD120688168BA080A40B9D1002076
:103F7000F2BD0000FFDFFFFF416820220A434260DC
:103F80000320F2BDF1B582B0002800D188E1AD4C2C
:103F90000078C00718D50C206168014004290BD0B7
:103FA0006168084008284FD16068C021490201407B
:103FB00080204002814247D12068800304D50298C6
:103FC0004068002800D16BE1022002990968014095
:103FD0001ED00C2162680A400AD06268114008298C
:103FE00070D16168C02252020A4081038A4269D1BD
:103FF0002168084004D00298C068012800D04FE131
:104000002068F821884302990969C90001432160A9
:1040100002980078000700D444E10298C0690028A3
:10402000606A74D0012101436162FEF7D7FE060089
:104030000225606A284000D034E1FEF7CFFE801BE5
:104040000228F6D90320DBE102984068012804D158
:10405000206880214902014315E0002801D1206831
:104060000BE00528206808D18021C90201432160A6
:10407000206880214902014305E073490140216025
:1040800020687249014021608025AD020298406895
:1040900000280BD0FEF7A2FE06002068284093D12E
:1040A000FEF79CFE801B6528F7D3CBE7FEF796FE54
:1040B00006002068284087D0FEF790FE801B652808
:1040C000F7D3BFE70298C068002820680FD001210D
:1040D00001432160FEF782FE060002252068284089
:1040E0008ED1FEF77BFE801B0228F7D9AAE70121BB
:1040F00088432060FEF772FE0600022520682840F3
:1041000086D0FEF76BFE801B0228F7D99AE70121C3
:1041100088436062FEF762FE06000225606A28405E
:1041200000D1BFE0FEF75AFE801B0228F6D989E7CE
:10413000002801D1206A09E00528206A06D1284319
:104140002062206A01210143216205E001218843A8
:104150002062206AA843206202988068002810D05C
:10416000FEF73CFEA749009102270600206A38406E
:1041700000D0C6E0FEF732FE801B00998842F5D3DE
:1041800060E7FEF72BFE9F49009102270600206A98
:10419000384000D1B5E0FEF721FE801B009988422F
:1041A000F5D34FE7FEF71AFE801B022800D8C3E0C4
:1041B00048E7FEF713FE801B022800D8FAE041E72B
:1041C0000421C9438842606B02D101406163B7E0BA
:1041D00005436563606B012188436063FEF7FEFD64
:1041E00006000225606B284000D1B1E0FEF7F6FD25
:1041F000801B0228F6D925E780256D020298006A07
:104200000028606B0ED028436063FEF7E7FD0600D0
:10421000606B284000D0B7E0FEF7E0FD801B02286D
:10422000F6D90FE7084901406163FEF7D7FD0600A4
:10423000606B284000D1A7E0FEF7D0FD801B02286C
:10424000F6D9FFE600100240FFFFFEFFFFFFFBFF75
:1042500001402160FEF7C2FD06002068284000D121
:10426000CDE0FEF7BBFD801B0228F6D9EAE6012867
:1042700016D06068E16AC02252020240029B9B6A2B
:104280009A420DD10907090F029A126B914207D188
:10429000F021890301400298C06A814200D1AEE05A
:1042A0000120ADE0042502980068284030D00020AD
:1042B0000190A806E169014008D1E1690143E1618B
:1042C000E169084000900098012001908E48006844
:1042D000C00510D48C4F3868A10D01433960FEF73A
:1042E0007DFD06003868C00505D4FEF777FD801B0C
:1042F0006528F7D3A6E602988068012800D017E762
:104300001FE70198002803D0E06995490140E16169
:1043100002980078C0061BD502984069012800D099
:104320004EE7606B05436563606B01210143616388
:10433000FEF754FD06000225606B284000D131E7EE
:10434000606BF821884302998969C9000143616360
:1043500002980078800617D50C20616801400C296E
:104360000BD061680840082800D045E7C020400213
:1043700061680140814200D03EE7606BC00303D515
:104380000298006A01288BD10298406A002836D032
:1043900061680C220A40082A00D168E78025AD0434
:1043A00075490228206800D052E701402160FEF7DD
:1043B00015FD06002068284000D0FAE6E06A0F21CB
:1043C00088430299096B0143E16260686B490140CF
:1043D0000298C06A08430299896A014361602068B3
:1043E000690801432160FEF7F9FC060020682840B7
:1043F00005D1FEF7F3FC801B0228F7D922E6002046
:1044000003B0F0BD89130000F8B5040079D0009125
:1044100001275B480068384088420AD25848016842
:10442000B943009A0A430260006838400099884204
:1044300067D12168534D022001420CD0490704D5B1
:104440006968E022D2000A436A606968F0229143F9
:10445000A2680A436A602168394042D06168012934
:1044600002D12868800308E0022902D1286880016F
:1044700003E0032903D1686BC00303D441E02A6839
:1044800010403ED068680322904301436960FEF704
:10449000A5FC060068680C2101406068800081422C
:1044A0001FD0FEF79BFC801B37498842F2D30320C4
:1044B000F2BD2078400705D5686834490140E068BE
:1044C0000843686000F022F831496A681206120F4A
:1044D000895CC8402F490860002000F055FA002090
:1044E000F2BD2748009902683A409142E1D2016842
:1044F000B943009A0A430260006807400098874267
:10450000D7D00120F2BD00000070004030B5224934
:1045100008680C220240082A02D00C2A1CD01DE098
:104520000F2200BF20A3840C14401C5D22A3896AC3
:104530000A40995CC02252021300034080256D029C
:10454000AB4204D01040904201D1144800E014481E
:10455000FEF785F8604330BD104830BD104830BDCF
:10456000FFFFFFEF0B4800680E490B4A1268520527
:10457000520F895CC8407047FFFFFFFEFF7FC2FFFC
:10458000002002400010024089130000FFF8FFFFE6
:10459000085A0008CC00002004100240006CDC0225
:1045A00000127A006C5A0008020304050607080985
:1045B0000A0B0C0D0E0F101001020304050607086C
:1045C000090A0B0C0D0E0F10704770477047FEE77D
:1045D00080B50648016810220A430260002000F0FE
:1045E000D3F900F0F3F9002002BD000000200240E2
:1045F00038B50500022269463320FDF7D0FB6C4632
:104600002078010260780843FCF756FE28600222F9
:1046100069463520FDF7C3FB207801026078084326
:10462000FCF74AFE6860022269463720FDF7B7FBB7
:104630002078010260780843FCF73EFEA860022261
:1046400069463920FDF7ABFB20780102607808430A
:10465000FCF732FEE860022269462B20FDF79FFB43
:1046600020780002617808432882022269462D20C2
:10467000FDF795FB20780002617808436882298A5B
:10468000401AA88231BD10B500F0B8F9224801885F
:10469000224CA1854089401AFCF70EFE01002048FB
:1046A000FDF7A2F9206314212000343000F04FFA06
:1046B00010BD10B50020194CA11D05220B88C01893
:1046C0008B88C0180831521EF8D10A21FDF7C7FFA8
:1046D00080B2A18D401AFCF7EFFD216BFCF765FD60
:1046E0001049FDF7B9FD10BD0C480078704780B542
:1046F00000F038FA00200949087001BD10B500F03B
:1047000038FA064C282221003431201DFCF726FD02
:104710000120207010BD0000B8F7FF1F0C12002010
:104720000000A0420000F0411CB500BF35A003C846
:104730006A4603C2304C31482060200000F036FA4F
:10474000002801D0FFF704F800200090022001901B
:1047500010226946200000F04FFA002801D0FEF731
:10476000F7FF13BD10B586B0040001A81421FEF7B1
:104770003BFB2068214988421FD1214880218905BF
:1047800082680A438260826811400091009980210A
:10479000890202680A4302600068014000910098A3
:1047A00003200290002003900198202101430191F1
:1047B00001A99020C005FEF717F906B010BD38B565
:1047C000030080225201904203DA080003D001293D
:1047D00003D0012032BD002400E01024064D002249
:1047E0002100280000F0F6F92100280000F01FFA4F
:1047F000002032BD00000000B4130020007400400F
:1048000014100240000000000000000080B50A48BB
:104810000A490160032141600949C1600949816079
:1048200000F032FA002801D0FEF792FF01BD80B5FA
:10483000014800F04FFA01BDC813002000300040CD
:10484000FF0F0000E2040000FEB50400474D2068A1
:10485000C0035BD50027802040052968014007D1AF
:1048600029680143296029680840009000980127C1
:104870003F480068C0051AD43D480068A90D0143AF
:104880003B480160FEF7AAFA060039480068C005F7
:104890000DD4FEF7A3FA801B6528F6D3032063E04E
:1048A000FEF79CFA801B019988421FD3F6E7C020CF
:1048B0008000696801401DD062681040814219D0B3
:1048C00069682C4808406968802252020A436A607D
:1048D0006968294A0A406A606860C0070AD5FEF71D
:1048E0007DFA26490191022100910600686800992D
:1048F0000140D5D068681F4901406068084368607E
:10490000002F03D028681E49014029602078C00785
:1049100005D5686903218843A1680143696120784E
:10492000800705D5686917490140E0680843686158
:104930002078800605D568691021884321690143E4
:1049400069612068800305D5686980218843A16971
:10495000014369612068400505D5686940218843A5
:10496000616901436961002003B0F0BD1C10024081
:1049700000700040FFFCFFFFFFFFFEFF89130000F7
:10498000FFFFFFEFFFFFFCFF38B505000D4CFA20DD
:1049900080002178FDF763FE01000B480068FDF7F9
:1049A0005EFEFDF733FC00280AD1042D08D2002258
:1049B00029000020C043FDF713FCA560002032BD94
:1049C000012032BDC0000020CC00002081B00120B9
:1049D00009490A6802430A600A681040009000987A
:1049E000802040054A6802434A60496808400090B8
:1049F000009801B0704700BF1810024018B583B08E
:104A000068460C21FEF7F0F9634C644820600020F2
:104A10006060A060E0600121216104226261208366
:104A2000A176E076FF22C232E26120622422A15404
:104A3000A062200000F05AF9002801D0FEF788FE9D
:104A4000200000F0DDFB002801D0FEF781FE802071
:104A5000400101900620029002200090694620004B
:104A600000F0B2FA002801D0FEF772FE102000908C
:104A70006946200000F0A8FA002801D0FEF768FE81
:104A800004B010BD70B586B0040001A81421FEF773
:104A9000ABF920684149884257D10121404802685A
:104AA0000A4302600268114000910099410D42687A
:104AB0000A43426042681140009100998021C90276
:104AC00002680A43026002681140009100990321C4
:104AD0000291002503958021890202680A43026041
:104AE0000068014000910098019804210143019160
:104AF00001A99020C005FDF777FF2A4E2A483060B3
:104B00007560B5608020F060803030618000706139
:104B10002020B0610002F0613000FEF71BFE00288B
:104B200001D0FEF715FE26637462002200210920E1
:104B3000FDF756FB0920FDF757FB002201210C2051
:104B4000FDF74EFB0C20FDF74FFB06B070BD80B5A6
:104B50000A000100104800F085F9401E8041C04362
:104B6000C00F02BD0C480068816804220A438260BD
:104B7000704709480068816810220A4382607047C4
:104B800080B50848FEF761FE01BD80B5024800F01F
:104B9000B3F901BD000000003413002000240140DF
:104BA00014100240681200200800024038B50400CA
:104BB00001D1012032BD00252079002803D1657183
:104BC0002000FFF7CFFD0220207125610120207118
:104BD000002032BD18B40024009400680090002921
:104BE000009801D1083200E014328018009000983B
:104BF0000360002012BC704770B44379012B01D1CF
:104C0000022012E001234371022404710468256824
:104C10001C4E9640B5430E68496831439140294384
:104C20002160037100214171002070BC704770B495
:104C30004279012A01D1022022E00122427102239D
:104C400003710468256801268E402E43266004689F
:104C5000002908D121683C230B403C2B0CD1616812
:104C60001143616008E0F021890325680D408D4201
:104C700002D161680B436360027100214171002021
:104C800070BC7047FE0F000038B5050001D101204F
:104C900032BD2868124901601249016069684160AB
:104CA000A9688160FEF79AF804002868C1680029A5
:104CB0000AD0FEF793F8001B3128F6D3032032BD4B
:104CC00009490160002032BDE96802698A42F7D0D3
:104CD0000161F7E7044900680160002070470000A7
:104CE000CCCC000055550000AAAA0000F8B504007D
:104CF0000025002C01D10120F2BDA06B002805D1B8
:104D0000E063342160542000FFF7BCFE1021A06B4B
:104D1000084000D099E0236804209A68024000D03F
:104D200093E0A26B4C4E164002223243A263012252
:104D30009E68B607B60F012E05D11E6816400FD12A
:104D4000DE6836040CD4DE681827BE43A7683743F4
:104D5000DF6023681E69B600B608676837431F61C5
:104D60002368DE683D4F3740DF60A36A012B01D026
:104D7000860200E000262369022B01D1009000E0AA
:104D80000095A37E207E8003677EFF0307435803C0
:104D900038430643E0683043009E06432420205CED
:104DA00040003043E67E012E0CD1002B03D10300DE
:104DB0000803184306E0A36B20261E43A663E36B9B
:104DC0001343E363E369FF26C236B34203D0060010
:104DD000206A184330432368DE680643DE60E36AD6
:104DE0000E06B3420DD0012B0BD0022B09D0032BA2
:104DF00007D0042B05D0052B03D0062B01D0072BA1
:104E00000CD123685E690727BE435E6123685E6933
:104E10002C27E75D7F077F0F37435F610223DB436A
:104E20002668F6680E4F3740874205D1E563A06BD0
:104E300003401A43A2630CE0A06B03401943A16333
:104E4000E06B1043E063012503E0A06B0143A16325
:104E500001252800F2BD0000FFFEFFFF1902FEFF42
:104E6000E7FF3F83F7B5040000250027206880682E
:104E700040073BD43420205C012801D1022037E0D8
:104E8000012634216654607E012804D0200000F001
:104E900021F907002BD1029BA06B1649014030027B
:104EA0000843A063E563342025548748216B88625A
:104EB0008648216BC8628648216B08631C202168E4
:104EC00008602068416810220A4342602068C16877
:104ED0000E43C660019A21684031206BFEF76EFCDC
:104EE0002068816804220A43826000E002273800BB
:104EF00003B0F0BDFEF1FFFF70B50400206810257F
:104F0000042102680A4002D042680A4006D1082201
:104F1000036813402FD043681A402CD0A26B2A405C
:104F200003D1A26BCB011343A363C268C0231B014F
:104F300013401AD1A27E002A17D10268120714D595
:104F400001228368194009D141680C2399434160CB
:104F5000A06B7E4901400A43A26306E0A06B2021BA
:104F60000143A163E06B0243E2632000FFF7C6FB4D
:104F70000C202168086020688026016831400BD031
:104F80004068304008D0A06B29030143A163200092
:104F900000F092F92068066020680168294012D06C
:104FA000416829400FD0A16A012902D0C168C90710
:104FB00007D5E16B02220A43E2630560200000F09E
:104FC0007CF92068056070BDF8B504000025002656
:104FD00000953420205C012801D10220F2BD01207F
:104FE0003423E054226893685B0763D40B689840CD
:104FF0004B68574FBB42936A49D018439062E06AAE
:105000008022520590421DD001281BD0022819D0C1
:10501000032817D0042815D0052813D0062811D04E
:1050200007280FD0226807208B6857690740BB42CA
:1050300008D0536983435361226853698F683840AD
:1050400018435061086810281BD011281CD0122862
:1050500035D180204004594A13681843106008680D
:1050600010282CD1564800685649FDF7F8FA8100FF
:105070000818400000900098002820D00098401E9A
:10508000F8E780200004E6E78020C003E3E78343DD
:1050900093620868102809D0112809D012280ED16F
:1050A0004949464802681140016008E04749F8E76D
:1050B0004749F6E7A16B20220A43A2630126342068
:1050C00025543000F2BD000055510008DD510008A4
:1050D000E75100087CB505000020009028680124F5
:1050E00081688907890F012905D1016821402AD1EA
:1050F000C168090427D48168364A0A401AD18168F8
:10510000214381602E4800682E49FDF7A8FA01E08E
:105110000098401E009000980028F9D1FDF75EFE2F
:1051200006002868006820400DD1FDF757FE801B5F
:105130000328F6D3A86B10210143A963E86B04434D
:10514000EC63012076BD002076BD0000FFFEFFFF6E
:105150000110000010B5416A8A6B5023134029D119
:10516000886B8022920002438A630868C268C02369
:105170001B0113401AD18A7E002A17D10268120738
:1051800014D5012283685B0709D443680C24A34328
:105190004360886B104B03401A438A6306E0886BB8
:1051A000202303438B63C86B0243CA630800FFF7E5
:1051B000A5FA10BD096B096B884710BD082701408F
:1051C000CC00002040420F00FFFFFFFEFFFF7FFFEB
:1051D000FFFFBFFF17000080FFFEFFFF80B5406AA2
:1051E00000F06CF801BD80B5406A816B40220A4333
:1051F0008263C16B04220A43C26300F05EF801BD02
:10520000FEB50600002469460C703420305C01288D
:1052100001D102204BE0012534217554306803216F
:1052200082680A40012A0CD102682A4002D1C26871
:10523000120406D5B06B20210143B16368460570A6
:1052400031E0B26B1B4B134002221A43B263C268B7
:1052500011400191C16803229143C16030688168A7
:10526000802212060A438260FDF7B8FD070030680D
:10527000816800290ED5FDF7B1FDC01B0328F6D3C8
:10528000B06B0221884310210143B16334203454B0
:1052900001200CE0C168019A0A43C260B06B022190
:1052A00088430543B563342034546846007803B01E
:1052B000F0BD00BFFFFEFFFF704770477047FEE77D
:1052C00000000062630065BE012026425C48A00326
:1052D00021E42031A10321E4203184012363010072
:1052E00000000000200B4358C0FE43C0447A7E20DB
:1052F0000BC0C0C0C8FF43ED44C0C0C0F6FF43ECC4
:1053000044C0C0C0C8FF412394D043EE44D243EF11
:1053100044205A706071617868027AF343C7FE4195
:10532000EB455A21DF46464646EC44C0C0C0C8FFA4
:105330004355ED45EC51F4412388EA45F541238876
:10534000E9451D414358EA2199E95046EB44A90239
:10535000EB5943CAFE415CA803C05AEB45EB41F24E
:1053600045F6412388EA45F7412388E9451F414333
:1053700058EA2199E95046EB44A902EB5943CAFE89
:10538000415CA803C05AEB45EB41F34502FFFFFF28
:1053900047474747474747477C7D4541024747477F
:1053A00047474747F07C6D45416C7D454102474783
:1053B0004747474747F06C7D4541024747474747C6
:1053C0004747F07C6D4541454102474747474747BE
:1053D00047F07C6D45410247474747474747024FE3
:1053E0004F4F4F4F4F4F4F4F4F4F4F4F4F4F4F4FCD
:1053F0004F4F4F4F4F4F4F4F4F4F4F4F4F4F4F4FBD
:105400004F4F4F4F4F4F4F4F4F4F4F4F4F4F4F02F9
:105410004E4E4E4E4E4E4E4E4E4E4E4E4E4E4E4EAC
:105420004E4E4E4E4E4E4E4E4E4E4E4E4E4E4E4E9C
:105430004E4E4E4E4E4E4E4E4E4E4E4E4E4E4E4E8C
:105440000256565656565656565656565656565650
:1054500056565656565656565656565656565656EC
:1054600056565656565656565656565656565656DC
:1054700056025E5E5E5E5E5E5E5E5E5E5E5E5E5EB0
:105480005E5E5E5E5E5E5E5E5E5E5E5E5E5E5E5E3C
:105490005E5E5E5E5E5E5E5E5E5E5E5E5E5E5E5E2C
:1054A0005E5E5E026AFD43404F4F4FEB457AF94125
:1054B0004358EB2199EA44C0C0C0F1FF43EC44C01B
:1054C000C0C0C8FF41ED45C041C0C0C0F8FF43E9BE
:1054D000446A1D43AB01EA588E03EC531D501F4430
:1054E000EC53ED53E943EC58ACE68E26C0C0C0F94E
:1054F000FF43EC44C0C0C0C8FF43ED44C041C0C03E
:10550000C0FCFF43E9441D431F59E943ED53EC53ED
:1055100058ACF27AC0C0C0C9FF43EC44E744E84449
:10552000C0C0C0C8FF43ED441F434E4E4E44C0C0F0
:10553000C0CFFF43E9448E07C0C0C0CBFF43E9445E
:10554000405D1D431F21CAE843EC441D45F843ABB1
:105550000CC041ED53531F434E4E4E44E753C041E0
:10556000E853E75341EC45E9435CACD3C0C0C0CF3E
:10557000FF43E944E841E9435CA80CC041E84353D8
:10558000EC441D445943ABEBC843464646447A8A33
:105590001BC043405D5D9015C845C945F843AA0B43
:1055A000CA45CB45CC45CD45CE45CF450002C0438D
:1055B0004E4EEA44E9448E06C0434EEA44E944F8BC
:1055C00043AB13C0434EEA444E50E9448E08C043F7
:1055D000EA444E4E50E944C0C0C0C8FF434E4EE9B5
:1055E000519101235AEA43E9519201235AEA43E9CE
:1055F000519301235AEA43E9519401235AEA43E9BA
:10560000519501235AEA43E9519601235AEA43E9A5
:10561000519701235AEA43E95102E9434646EC44D3
:105620001D45027AFA414F4F4FE7455AFB43E77554
:1056300021CA65D0455AFC43E721CAD1455AFD43EA
:10564000E721CAD245796902D7FE43E7455DAD013E
:105650005D4541021F431D44C043EC51ED515DAA1D
:10566000F202FFFFFFFFFFFFFFFFFFFFFFFFFFFF54
:1056700000C1814001C0804101C0804100C1814022
:1056800001C0804100C1814000C1814001C0804112
:1056900001C0804100C1814000C1814001C0804102
:1056A00000C1814001C0804101C0804100C18140F2
:1056B00001C0804100C1814000C1814001C08041E2
:1056C00000C1814001C0804101C0804100C18140D2
:1056D00000C1814001C0804101C0804100C18140C2
:1056E00001C0804100C1814000C1814001C08041B2
:1056F00001C0804100C1814000C1814001C08041A2
:1057000000C1814001C0804101C0804100C1814091
:1057100000C1814001C0804101C0804100C1814081
:1057200001C0804100C1814000C1814001C0804171
:1057300000C1814001C0804101C0804100C1814061
:1057400001C0804100C1814000C1814001C0804151
:1057500001C0804100C1814000C1814001C0804141
:1057600000C1814001C0804101C0804100C1814031
:1057700000C0C101C30302C2C60607C705C5C404F1
:10578000CC0C0DCD0FCFCE0E0ACACB0BC90908C861
:10579000D81819D91BDBDA1A1EDEDF1FDD1D1CDC51
:1057A00014D4D515D71716D6D21213D311D1D010C1
:1057B000F03031F133F3F23236F6F737F53534F4B1
:1057C0003CFCFD3DFF3F3EFEFA3A3BFB39F9F83821
:1057D00028E8E929EB2B2AEAEE2E2FEF2DEDEC2C11
:1057E000E42425E527E7E62622E2E323E12120E081
:1057F000A06061A163A3A26266A6A767A56564A471
:105800006CACAD6DAF6F6EAEAA6A6BAB69A9A868E0
:1058100078B8B979BB7B7ABABE7E7FBF7DBDBC7CD0
:10582000B47475B577B7B67672B2B373B17170B040
:105830005090915193535292965657975595945430
:105840009C5C5D9D5F9F9E5E5A9A9B5B99595898A0
:10585000884849894B8B8A4A4E8E8F4F8D4D4C8C90
:105860004484854587474686824243834181804000
:10587000FF004200221020000B15030000220D0043
:1058800010020000000080004000000000001F0027
:10589000100380008F20BF004700180000000000A8
:1058A00000000000000000000000000000000000F8
:1058B00000000000000000000000000000002000C8
:1058C0000000000001010100010000000000940040
:1058D00019434E002507EF0019434E002507EF003E
:1058E0000151A4B798FFFF0082024403A2046A009A
:1058F000000FFF006400640064006400640064AA98
:1059000070B40123002413E00168001D194202D085
:105910004D466D1E49190C60091D121F042AFAD24A
:105920000D00960701D50C80AD1C1A4000D02C70DC
:105930000268001D002AE7D170BC704730B4012214
:105940000168001D00290FD00368C318446808309F
:10595000144202D04D466D1E64191D6825601B1D42
:10596000241D091FECD0F8E730BC704710B507497B
:1059700079441831064C7C44163404E0081D0A684A
:10598000891888470100A142F8D110BD0800000025
:10599000280000006DFFFFFF14130000D40000205A
:1059A0000000000099FFFFFF140000006C000000E1
:1059B000C00000200000000000F00DF8002801D019
:1059C000FFF7D4FF00BF00BF002000BF00BFFDF7FE
:1059D0000BFE00F002F80120704780B500F002F8DD
:1059E00001BDFEE70746384600F002F8FBE7FEE798
:1059F00080B500BF00BF024A11001820ABBEFBE714
:105A000026000200704700000000000000000000B7
:105A1000010203040607080901000000000000005D
:105A20000400000000127A0001000000FEE7000000
:105A30000148804701480047055A0008615A00089C
:105A4000024841680278891841607047C000002010
:105A50007047FEE77047704780B5FFF7F1FF01BD63
:105A600000BF00BF00BF00BFFFF7A6FF000000009F
:105A700001020304FEE7FEE7FEE7FEE7FEE7FEE7BE
:045A8000FEE7FEE758
:0400000508005A6134
:00000001FF
